:0C0000002DC0FECFFDCFFCCFFBCFFACF10
:10000C00F9CFF8CFF7CFF6CFF5CFF4CFF3CFF2CFC0
:10001C00F1CFF0CFEFCFEECFEDCF0000596F75736E
:10002C0065667A616465680048656C6C6F204C434A
:10003C004421000080C00100050026000B006B016C
:10004C0028000B0060013400020077014000000022
:10005C00F894EE27ECBBF1E0FBBFEBBFE5BF8DE006
:10006C00A2E0BB27ED938A95E9F780E094E0A0E647
:10007C00ED930197E9F7E2E4F0E085919591009713
:10008C0061F0A591B59105901590BF01F001059017
:10009C000D920197E1F7FB01F0CFEFE5EDBFE4E046
:1000AC00EEBFC0E6D1E000C0E0E0E7BBE8BBE4BBDC
:1000BC00E5BBE1BBE2BBE3BFE2BFEFBDEEBDEDBD17
:1000CC00ECBDE7BDE6BDEBBDEABDE9BDE8BDE2BDFB
:1000DC00E5BDE4BDE3BDE9BFE5BFEAB9E0E8E8B9D9
:1000EC00E0E0E0BFE6B9EDB9E6BFA0E171D03DD0EC
:1000FC00A0E6B1E05CD0E0E0EA93A1E029D0552481
:10010C00EDE05E1650F4E52DF0E0E559FE4FA081D0
:10011C003AD0A4E686D05394F3CFFFCFAA93E8B39A
:10012C00EF70AE2FE881E07FEA2BE8BB7CD0929A8F
:10013C007AD0929878D073C0AA93A881EFDFE88127
:10014C00E295E883A881EADF85E88A95F1F767C034
:10015C00AA93E881F0E0E958FE4FE081A981AE0F47
:10016C00EBDF4980788022960895A2E0E5DFA3E0DA
:10017C0058D0ACE0E1DFA1E0DFDFA3E052D0E0E05B
:10018C007E2E4E2E0895AA93A881AA3011F0461403
:10019C0040F0E0E0EA937394A72DDADFA881AA304F
:1001AC00F1F14394909AA881C7DF909838C0BA9324
:1001BC00AA931A93A981BA81ED91A983BA831E2FB0
:1001CC00E03019F0A12FDFDFF5CF188123960895C9
:1001DC00AA93E7B3E06FE7BB8A9A889A899A9298B8
:1001EC00909891986880E881E058E0937901E881D3
:1001FC00E054E0937A01A4E114D019D018D017D0B0
:10020C00A0E28CDF88EC90E00197F1F7A8E294DF94
:10021C00A4E092DFA5E890DFA6E08EDFA6DF2196B2
:10022C000895B0E00BC08DE08A95F1F70895A0E336
:10023C0075DF88EC90E00197F1F70895109639F08E
:10024C0080ED97E00197F1F7A8951197C9F70895FC
:00000001FF
